:030000000208DB18
:0C08DB00787FE4F6D8FD7581200208004B
:0708CD007FC81208D47FC8A8
:0708D400EF60031F80FA2210
:10089600AD07AC06ED4C601543E1101208CD120809
:0E08A600CD7FC81208D4ED1D70EA1C80E72239
:10083C00A2AF920175E780E4F5E375E44C75E5052C
:10084C0075E64675E6B900AFE25307FE8FE275E533
:0C085C000475E64675E6B900F5E7F5E521
:01086800226D
:10086900A2AF920075E780E4F5E375E44C75E50500
:1008790075E64675E6B900AFE25307FD8FE275E507
:0C0889000475E64675E6B900F5E7F5E5F4
:010895002240
:1008B40053B1FC53B2FC53B1F743B20843B3707560
:0908C400AC0253928FE4F5AC2262
:0308E7000208B450
:100800001208E7C2B3C2EEC2B27FD07E07120896CA
:10081000D2B3D2EED2B27FD012089612083CC2EC0C
:10082000C2B3C2EEC2EDD2EDD2EC7FD07E07120889
:0C08300096C2EDC2EC7FD012089680EA60
:00000001FF
